:020000040800F2
:1000000030040020450100084105000839050008BA
:100010003D050008B9010008270B0008000000009A
:10002000000000000000000000000000E5060008DD
:10003000ED03000800000000ED050008D1070008EE
:100040005F0100085F0100085F0100085F01000810
:100050005F0100085F0100085F0100085F01000800
:100060005F0100085F0100085F0100085F010008F0
:100070005F0100085F0100085F0100085F010008E0
:100080005F0100085F0100085F0100085F010008D0
:100090005F0100085F0100085F0100085F010008C0
:1000A0005F0100085F0100085F0100085F010008B0
:1000B0005F0100085F0100085F0100085F010008A0
:1000C0005F0100085F0100085F0100085F01000890
:1000D0005F010008B10800085F0100085F01000827
:1000E0005F0100085F0100085F0100085F01000870
:1000F0005F0100085F0100085F0100085F01000860
:100100005F0100085F0100085F0100085F0100084F
:100110005F0100085F0100085F0100085F0100083F
:100120005F0100085F0100085F0100085F0100082F
:10013000DFF80CD000F02EF800480047E50C00086E
:10014000300400200648804706480047FEE7FEE7E7
:10015000FEE7FEE7FEE7FEE7FEE7FEE7FEE7FEE777
:10016000510800083101000830B50B460146002057
:100170002022012409E021FA02F59D4205D303FA69
:1001800002F5491B04FA02F52844151EA2F10102EA
:10019000F1DC30BD064C074D06E0E06840F001039D
:1001A00094E8070098471034AC42F6D3FFF7C4FF39
:1001B000880D0008A80D000800BFFEE7074800688A
:1001C00040F08070054908600020054948600846F5
:1001D000006840F00100086070470000FCED00E09E
:1001E000001000E00148406870470000001000E087
:1001F00031B50024FFF7E2FF104800681049B0FB5A
:10020000F1F0009900FB01F500BFFFF7EBFF03469B
:1002100011E0FFF7E7FF02469A420CD09A4202D95A
:10022000D01A044403E0C3F1FF30104404441346E1
:10023000AC4200D300E0ECE700BF38BD0000002076
:1002400040420F0008B50121402000F0D1F94020C4
:10025000ADF8000010208DF8030003208DF8020097
:100260006946024800F0D0F808BD000000180140BF
:1002700010B5FFF7E7FF4021014800F05BF910BD22
:100280000018014008B50121402000F0B1F94020DC
:10029000ADF8000048208DF803006946014800F0E1
:1002A000B3F808BD0018014008B54020ADF80000C3
:1002B00010208DF8030003208DF8020069460248E3
:1002C00000F0A2F808BD00000018014070B500243D
:1002D000002522E000BF4021124800F020F900284C
:1002E000F9D03220FFF784FF40210E4800F017F9C3
:1002F000012809D144F0010400BF4021094800F061
:100300000EF90128F9D001E004F0FE04072D00D118
:1003100005E06006040E681CC5B2082DDADB00BFDC
:10032000204670BD0018014010B50446FFF7BCFF21
:100330004021264800F0FCF844F25060FFF758FFD7
:100340004021224800F0F6F81E20FFF751FFFFF78A
:1003500099FF40211D4800F0E2F8E0B900BF4021BC
:100360001A4800F0DCF80028F9D000BF40211748F7
:1003700000F0D5F80128F9D0FFF7A8FF2070FFF7AB
:10038000A5FF6070FFF7A2FFA070FFF79FFFE0706E
:10039000FFF79CFF20713220FFF72AFFFFF752FF83
:1003A00040210A4800F0C6F8207861780844A17816
:1003B0000844E17808442179884201D1012010BD28
:1003C00003A000F0B3FB0020F9E700000018014093
:1003D000B6C1C8A1CEC2CAAAB6C8CAFDBEDDB2BBEC
:1003E000D5FDC8B7A3A1A3A1A3A10A00704700210E
:1003F00005E0002200E0521C8242FCD3491C41F27D
:1004000088339942F5D370472DE9F0410246002523
:100410000026002000230024002791F803C00CF0E0
:100420000F0591F803C00CF0100CBCF1000F03D0C5
:1004300091F802C04CEA050591F800C0BCF1000F2C
:1004400031D0146800202BE04FF0010C0CFA00F3BF
:10045000B1F800C00CEA03069E4220D183004FF0A1
:100460000F0C0CFA03F7BC4305FA03FC4CEA040436
:1004700091F803C0BCF1280F06D14FF0010C0CFA23
:1004800000FCC2F814C00AE091F803C0BCF1480FA8
:1004900005D14FF0010C0CFA00FCC2F810C0401C52
:1004A0000828D1D31460B1F800C0BCF1FF0F34DDCF
:1004B000546800202EE000F1080C4FF0010808FA03
:1004C0000CF3B1F800C00CEA03069E4221D1830070
:1004D0004FF00F0C0CFA03F7BC4305FA03FC4CEA8F
:1004E000040491F803C0BCF1280F05D100F1080CF9
:1004F00008FA0CF8C2F8148091F803C0BCF1480F58
:1005000007D100F1080C4FF0010808FA0CF8C2F806
:100510001080401C0828CED35460BDE8F08102460C
:10052000002093680B400BB1012000E000207047D1
:10053000416170470161704700BFFEE700BFFEE701
:10054000704708B54FF4A06000F046F825208DF8FC
:10055000000001208DF801008DF802008DF80300E5
:10056000684600F001F808BD70B5002100230F2295
:10057000C47804B3154C246804F4E064C4F5E06462
:10058000210AC1F10403CA40447804FA03F18478D3
:100590001440214309010E4C0678A155047804F05B
:1005A0001F050124AC4005786D11AD0005F1E02573
:1005B000C5F8004109E0047804F01F050124AC40AF
:1005C000044D0678761145F8264070BD0CED00E02C
:1005D00000E400E080E100E002490143024A1160CA
:1005E000704700000000FA050CED00E070470000C5
:1005F00029B1064A92690243044B9A6104E0034A16
:1006000092698243014B9A617047000000100240DA
:1006100030B500210022002400232D4D6D6805F027
:100620000C0121B1042905D0082923D105E0294D69
:10063000056022E0274D05601FE0254D6D6805F43B
:100640007012234D6D6805F48034022505EB92424B
:100650001CB9214D554305600BE01D4D6D6805F437
:1006600000351DB11C4D5543056002E0194D554341
:10067000056002E0174D056000BF00BF144D6D68B6
:1006800005F0F0010909154D6B5C0568DD4045601A
:100690000F4D6D6805F4E061090A104D6B5C45680B
:1006A000DD4085600A4D6D6805F46051C90A0B4D47
:1006B0006B5C4568DD40C560054D6D6805F44041E3
:1006C000890B074D6B5CC568B5FBF3F5056130BD63
:1006D0000010024000127A0000093D0015000020C1
:1006E00025000020704710B500F002F810BD000092
:1006F0000CB50020019000903348006840F4803031
:100700003149086000BF3048006800F400300090B4
:100710000198401C0190009818B90198B0F5A06F9D
:10072000F1D12948006800F4003010B10120009098
:1007300001E0002000900098012843D12348006880
:1007400040F01000214908600846006820F00300CE
:1007500008600846006840F0020008601A484068D7
:10076000194948600846406848600846406840F4B7
:10077000806048600846406820F47C104860084665
:10078000406840F4E81048600846006840F0807017
:10079000086000BF0C48006800F000700028F9D025
:1007A0000948406820F0030007494860084640684F
:1007B00040F00200486000BF0348406800F00C00B1
:1007C0000828F9D10CBD00000010024000200240B2
:1007D0007047000030B51A4800681A4AB0FBF2F1C1
:1007E000B1F1807F01D301201DE021F07F40401E48
:1007F0004FF0E022506150170F22002807DA13074C
:100800001D0E114B00F00F04241F1D5503E01307AC
:100810001C0E0E4B1C5400BF00204FF0E0229061D4
:1008200007201061002008B100BFFEE74FF0E02074
:10083000006920F001004FF0E021086130BD0000A8
:100840000000002040420F0018ED00E000E400E04E
:1008500010B51348006840F00100114908600846CF
:100860004068104908400E494860084600680E4933
:1008700008400B4908600846006820F480200860A2
:100880000846406820F4FE0048604FF41F0088606E
:10089000FFF729FF4FF000600449086010BD000019
:1008A000001002400000FFF8FFFFF6FE08ED00E038
:1008B00010B540F22551074800F071F848B10548DD
:1008C00000F028F90449087008460178014800F052
:1008D00026F910BD003801401400002021B18289A2
:1008E00042F40052828104E082894DF6FF731A407F
:1008F0008281704700B585B001210420FFF778FEA2
:1009000001218803FFF774FE4FF40070ADF810006A
:1009100018208DF8130003208DF8120004A9174841
:10092000FFF772FD4FF48060ADF8100004208DF8E1
:10093000130004A91148FFF767FD4FF4E130009060
:100940000020ADF80400ADF80600ADF80800ADF8E1
:100950000C000C20ADF80A006946094800F06EF85A
:10096000FFF7EFFD012240F22551054800F041F864
:1009700001210348FFF7B2FF05B000BD00080140A8
:100980000038014002460020B1F5007F00D100BFD1
:1009900013880B400BB1012000E00020704770B5B8
:1009A0000246002400230025002040F66A16B142CA
:1009B00000D100BFC1F3421501F01F03012606FA62
:1009C00003F3012D02D19689334006E0022D02D1B6
:1009D000168A334001E0968A33400C12012606FA4B
:1009E00004F41688344013B10CB1012000E000205B
:1009F00070BDF0B50346002400260025002040F617
:100A00006A17B94200D100BF1846C1F3421401F081
:100A10001F06012707FA06F5012C01D10C3004E06E
:100A2000022C01D1103000E014301AB107682F43B6
:100A3000076002E00768AF430760F0BD2DE9F047AB
:100A400086B005460E460024A24600BFA1460027F8
:100A5000B08900B100BF2F462C8A4CF6FF700440CD
:100A6000F08804432C82AC894EF6F3100440B08821
:100A700031890843718908430443AC81AC8A4FF63D
:100A8000FF400440B0890443AC8201A8FFF7C0FDD9
:100A90001F48874202D1DDF810A001E0DDF80CA06C
:100AA000A88900F4004040B10AEBCA0000EB0A102C
:100AB00031684900B0FBF1F807E00AEBCA0000EB2F
:100AC0000A1031688900B0FBF1F86420B8FBF0F03F
:100AD00004012009642101FB1089A88900F4004069
:100AE00040B1322000EBC900B0FBF1F000F007008C
:100AF000044308E0322000EB09106421B0FBF1F060
:100B000000F00F0004432C8106B0BDE8F087000020
:100B10000038014001468888C0F308007047C1F3DF
:100B200008028280704700BFFEE700000FB4054B4B
:100B300010B503A9044A029800F018F810BC5DF83B
:100B400014FB0000C10C00082C00002002E008C8C3
:100B5000121F08C1002AFAD170477047002001E037
:100B600001C1121F002AFBD1704700002DE9FF4F81
:100B700089B09B460446002506E025280BD05A463E
:100B80000B999047641C6D1C20780028F5D10DB09E
:100B90002846BDE8F08F0027B8460122474900E00B
:100BA000074314F8013F203B02FA03F00842F7D153
:100BB00020782E2819D114F8010F47F004072A28AD
:100BC0000ED06FF02F022078A0F1300109290CD847
:100BD00008EB880102EB410100EB0108641CF2E71D
:100BE0000A98641C50F8048B0A9020780028CED014
:100BF000642808D0692806D075281ED05A460B995B
:100C000090476D1C58E00A994FF00A0901C90A91F2
:100C1000002802DA40422D2102E0390504D52B21BB
:100C20008DF82010012103E0F90704D02021F7E717
:100C30008A4608AE0DE00021FAE70A994FF00A094A
:100C400001C90A91F7E74946FFF78EFA303106F8F5
:100C5000011D0028F7D1ADEB060000F1200978074F
:100C600001D44FF00108C84502DDA8EB090000E0FF
:100C700000208046002706E008A85A46C05D0B9970
:100C800090476D1C7F1C5745F6DB04E030205A4628
:100C90000B9990476D1CB8F10001A8F10108F5DC33
:100CA00005E016F8010B5A460B9990476D1CB9F1F7
:100CB0000001A9F10109F4DC641C65E709280100C1
:100CC00070B504460D46E1B20548FFF728FF00BFA6
:100CD00080210348FFF756FE0028F9D0204670BD5A
:100CE000003801400EB5FFF775FDFFF703FEFFF773
:100CF000BFFA0FA0FFF71AFF18E001A8FFF714FBD7
:100D000001280CD19DF8050000909DF804309DF855
:100D100007209DF806100CA0FFF708FF02E015A0C1
:100D2000FFF704FF41F28830FFF761FBE5E70000C1
:100D30004448543131CEC2CAAAB6C8B4ABB8D0C642
:100D4000F7CAB5D1E90A0D00B6C1C8A1B3C9B9A6A1
:100D5000A3A10A0DCEC2B6C8A3BA25642E2564206D
:100D6000A1E6A3AC20CAAAB6C8A3BA25642E2564FE
:100D7000200A0000B6C1C8A1CEC2CAAAB6C8CAA776
:100D8000B0DCA3A10A000000A80D000800000020AC
:100D9000300000004C0B0008D80D00083000002087
:100DA000000400005C0B000800A24A0400000000E0
:100DB000000000000102030406070809000000000B
:100DC00000010203040102030406070809020406E5
:080DD000080000000000000013
:0400000508000131BD
:00000001FF
