:020000040800F2
:100000002004002045010008C10300087303000814
:10001000BD030008530200082B090008000000007F
:10002000000000000000000000000000650500085E
:1000300057020008000000006D0400085106000887
:100040005F0100085F0100085F0100085F01000810
:100050005F0100085F0100085F0100085F01000800
:100060005F0100085F0100085F0100085F010008F0
:100070005F0100085F0100085F0100085F010008E0
:100080005F0100085F0100085F0100085F010008D0
:100090005F0100085F0100085F0100085F010008C0
:1000A0005F0100085F0100085F0100085F010008B0
:1000B0005F0100085F0100085F0100085F010008A0
:1000C0005F0100085F0100085F0100085F01000890
:1000D0005F010008B50600085F0100085F01000825
:1000E0005F0100085F0100085F0100085F01000870
:1000F0005F0100085F0100085F0100085F01000860
:100100005F0100085F0100085F0100085F0100084F
:100110005F0100085F0100085F0100085F0100083F
:100120005F0100085F0100085F0100085F0100082F
:10013000DFF80CD000F05CF800480047E513000839
:10014000200400200648804706480047FEE7FEE7F7
:10015000FEE7FEE7FEE7FEE7FEE7FEE7FEE7FEE777
:100160005506000831010008D2B201E000F8012B69
:10017000491EFBD270470022F6E710B513460A4627
:1001800004461946FFF7F0FF204610BD2DE9F05F49
:100190000546002092469B468846064681464024F6
:1001A0001BE0284641464746224600F042F85346A7
:1001B0005A46C01A914110D311461846224600F003
:1001C00029F82D1A67EB01084F462246012000212D
:1001D00000F020F817EB00094E41201EA4F10104A5
:1001E000DFDC484631462A464346BDE8F09F000022
:1001F000064C074D06E0E06840F0010394E8070074
:1002000098471034AC42F6D3FFF796FF78140008F5
:1002100098140008202A04DB203A00FA02F100209A
:1002200070479140C2F1200320FA03F31943904034
:100230007047202A04DB203A21FA02F0002170479F
:1002400021FA02F3D040C2F120029140084319463E
:10025000704700BFFEE770472DE9F04102460025D8
:100260000026002000230024002791F803C00CF092
:100270000F0591F803C00CF0100CBCF1000F03D077
:1002800091F802C04CEA050591F800C0BCF1000FDE
:1002900031D0146800202BE04FF0010C0CFA00F371
:1002A000B1F800C00CEA03069E4220D183004FF053
:1002B0000F0C0CFA03F7BC4305FA03FC4CEA0404E8
:1002C00091F803C0BCF1280F06D14FF0010C0CFAD5
:1002D00000FCC2F814C00AE091F803C0BCF1480F5A
:1002E00005D14FF0010C0CFA00FCC2F810C0401C04
:1002F0000828D1D31460B1F800C0BCF1FF0F34DD81
:10030000546800202EE000F1080C4FF0010808FAB4
:100310000CF3B1F800C00CEA03069E4221D1830021
:100320004FF00F0C0CFA03F7BC4305FA03FC4CEA40
:10033000040491F803C0BCF1280F05D100F1080CAA
:1003400008FA0CF8C2F8148091F803C0BCF1480F09
:1003500007D100F1080C4FF0010808FA0CF8C2F8B8
:100360001080401C0828CED35460BDE8F0810161A4
:10037000704700BFFEE7000008B50121082000F02B
:1003800077F82320ADF8000010208DF8030003203B
:100390008DF8020069460848FFF75EFF20210648F5
:1003A000FFF7E5FF01210448FFF7E1FF02210248C2
:1003B000FFF7DDFF08BD0000000C014000BFFEE7B5
:1003C000704708B54FF4A06000F046F825208DF87E
:1003D000000001208DF801008DF802008DF8030067
:1003E000684600F001F808BD70B5002100230F2217
:1003F000C47804B3154C246804F4E064C4F5E064E4
:10040000210AC1F10403CA40447804FA03F1847854
:100410001440214309010E4C0678A155047804F0DC
:100420001F050124AC4005786D11AD0005F1E025F4
:10043000C5F8004109E0047804F01F050124AC4030
:10044000044D0678761145F8264070BD0CED00E0AD
:1004500000E400E080E100E002490143024A11604B
:10046000704700000000FA050CED00E07047000046
:1004700029B1064A92690243044B9A6104E0034A97
:1004800092698243014B9A6170470000001002405C
:1004900030B500210022002400232D4D6D6805F0A9
:1004A0000C0121B1042905D0082923D105E0294DEB
:1004B000056022E0274D05601FE0254D6D6805F4BD
:1004C0007012234D6D6805F48034022505EB9242CD
:1004D0001CB9214D554305600BE01D4D6D6805F4B9
:1004E00000351DB11C4D5543056002E0194D5543C3
:1004F000056002E0174D056000BF00BF144D6D6838
:1005000005F0F0010909154D6B5C0568DD4045609B
:100510000F4D6D6805F4E061090A104D6B5C45688C
:10052000DD4085600A4D6D6805F46051C90A0B4DC8
:100530006B5C4568DD40C560054D6D6805F4404164
:10054000890B074D6B5CC568B5FBF3F5056130BDE4
:100550000010024000127A0000093D000100002056
:1005600011000020704710B500F002F810BD000027
:100570000CB50020019000903348006840F48030B2
:100580003149086000BF3048006800F40030009036
:100590000198401C0190009818B90198B0F5A06F1F
:1005A000F1D12948006800F4003010B1012000901A
:1005B00001E0002000900098012843D12348006802
:1005C00040F01000214908600846006820F0030050
:1005D00008600846006840F0020008601A48406859
:1005E000194948600846406848600846406840F439
:1005F000806048600846406820F47C1048600846E7
:10060000406840F4E81048600846006840F0807098
:10061000086000BF0C48006800F000700028F9D0A6
:100620000948406820F003000749486008464068D0
:1006300040F00200486000BF0348406800F00C0032
:100640000828F9D10CBD0000001002400020024033
:100650007047000010B51348006840F001001149D0
:10066000086008464068104908400E49486008463E
:1006700000680E4908400B4908600846006820F4ED
:10068000802008600846406820F4FE0048604FF46F
:100690001F008860FFF767FF4FF0006004490860A3
:1006A00010BD0000001002400000FFF8FFFFF6FE42
:1006B00008ED00E010B540F22551074800F071F850
:1006C00048B1054800F028F9044908700846017847
:1006D000014800F026F910BD00380140000000205C
:1006E00021B1828942F40052828104E082894DF670
:1006F000FF731A408281704700B585B00121042044
:10070000FFF7B6FE01218803FFF7B2FE4FF4007039
:10071000ADF8100018208DF8130003208DF812009A
:1007200004A91748FFF798FD4FF48060ADF810005A
:1007300004208DF8130004A91148FFF78DFD4FF434
:10074000E13000900020ADF80400ADF80600ADF8EF
:100750000800ADF80C000C20ADF80A006946094805
:1007600000F06EF8FFF72DFE012240F225510548FA
:1007700000F041F801210348FFF7B2FF05B000BDCA
:10078000000801400038014002460020B1F5007F1A
:1007900000D100BF13880B400BB1012000E0002006
:1007A000704770B50246002400230025002040F663
:1007B0006A16B14200D100BFC1F3421501F01F0318
:1007C000012606FA03F3012D02D19689334006E093
:1007D000022D02D1168A334001E0968A33400C1272
:1007E000012606FA04F41688344013B10CB1012036
:1007F00000E0002070BDF0B503460024002600256F
:10080000002040F66A17B94200D100BF1846C1F374
:10081000421401F01F06012707FA06F5012C01D149
:100820000C3004E0022C01D1103000E014301AB179
:1008300007682F43076002E00768AF430760F0BD19
:100840002DE9F04786B005460E460024A24600BFBB
:10085000A1460027B08900B100BF2F462C8A4CF674
:10086000FF700440F08804432C82AC894EF6F310EC
:100870000440B08831890843718908430443AC813E
:10088000AC8A4FF6FF400440B0890443AC8201A813
:10089000FFF7FEFD1F48874202D1DDF810A001E0FE
:1008A000DDF80CA0A88900F4004040B10AEBCA00B2
:1008B00000EB0A1031684900B0FBF1F807E00AEBE1
:1008C000CA0000EB0A1031688900B0FBF1F864201F
:1008D000B8FBF0F004012009642101FB1089A8890C
:1008E00000F4004040B1322000EBC900B0FBF1F051
:1008F00000F00700044308E0322000EB09106421F7
:10090000B0FBF1F000F00F0004432C8106B0BDE80D
:10091000F08700000038014001468888C0F30800D5
:100920007047C1F308028280704700BFFEE70000F5
:100930000FB4054B10B503A9044A029800F018F84B
:1009400010BC5DF814FB00004911000818000020DD
:1009500002E008C8121F08C1002AFAD17047704788
:10096000002001E001C1121F002AFBD170470000E6
:100970002DE9FF4F8DB00F460546002606E02528DD
:100980000BD0DDE90F1290476D1C761C28780028EB
:10099000F5D111B03046BDE8F08F0024A246A14643
:1009A0000122EC4900E0044315F8013F203B02FA24
:1009B00003F00842F7D128782A2810D06FF02F02D0
:1009C0002878A0F13001092914D80AEB8A0102EB3A
:1009D000410144F0020400EB010A6D1CF0E701CF75
:1009E0005FEA000A03D544F40054CAF1000A44F057
:1009F00002046D1C28782E2817D115F8010F44F039
:100A000004042A280ED06FF02F022878A0F13001BC
:100A100009290AD809EB890102EB410100EB010920
:100A20006D1CF2E757F8049B6D1C28786C280FD0DA
:100A300006DC4C2817D068280DD06A2814D104E0B1
:100A4000742810D07A280FD10DE044F400140AE085
:100A500044F4801401E044F440146978814202D1E6
:100A600004F580146D1C6D1C2A786E2A1FD00CDCD6
:100A7000632A31D004DC002A8BD0582A11D1A3E09C
:100A8000642A68D0692A0CD165E0732A2ED004DC70
:100A90006F2A73D0702A04D19BE0752A6FD0782A10
:100AA0006ED01046DDE90F129047761C50E1C4F37A
:100AB0000250022806D0032809D0042801CF09D00B
:100AC000066045E101CFF117C0E9006140E101CFC7
:100AD00006803DE106703BE117F8040B8DF800003D
:100AE00000208DF80100EB46012003E057F804BB1D
:100AF0004FF0FF3061074FF0000102D40DE008F124
:100B00000101884649450FDA8045F8DB1BF80810DB
:100B10000029F4D108E008F1010188468142FADB9E
:100B20001BF808100029F6D1DDE90F23AAEB080015
:100B30008146214600F036F9304400EB080604E017
:100B4000DDE90F121BF8010B9047B8F10108F7D24D
:100B500021464846F7E00A21C4F302534FF0000B48
:100B60000891022B04D001CFC117032B09D00AE052
:100B7000FF1D27F00707F7E8020108E032E01FE059
:100B800020E000B2C117042B01D140B2C117031EEF
:100B900071F1000307DA4FF0000CD0EB0C006CEBA6
:100BA00001012D2302E0230504D52B238DF82430E9
:100BB000012303E0E30701D02023F7E7984658E03C
:100BC0000A2110E010210EE010204FF0000B0890D9
:100BD0000CE010214FF0000B44F004044FF0080922
:100BE000089103E008214FF0000B0891C4F3025371
:100BF000022B04D001CF0021032B06D006E0FF1DFD
:100C000027F00707F7E8020103E080B2042B00D1C8
:100C1000C0B24FF0000823072BD5702A07D0DDF8AB
:100C200020C08CF0100C5CEA0B0C05D00EE04023C9
:100C30008DF82430012308E050EA010306D0302368
:100C40008DF824308DF8252002239846DDF820C049
:100C50008CF0080C5CEA0B0C0BD150EA010301D1BB
:100C6000630706D530238DF824304FF00108A9F131
:100C70000109582A04D038A20B9208AA0A920BE064
:100C80003AA2F9E75B46089AFFF780FA0B9B9B5C58
:100C90000A9A521E0A92137050EA0102F2D10A987F
:100CA000ADEB000000F1200B600702D524F4803486
:100CB00001E04FF00109D94502DDA9EB0B0000E08E
:100CC000002000EB0B0141440890AAEB010AE0036D
:100CD00006D4DDE90F232146504600F063F80644B0
:100CE0004FF0000908E009A911F80900DDE90F1229
:100CF000904709F10109761CC145F4DBE0030CD5EE
:100D0000DDE90F232146504600F04CF8064404E08C
:100D1000DDE90F1230209047761C0899481E089094
:100D20000029F5DC08E00A980A990078491C0A9124
:100D3000DDE90F129047761CBBF10001ABF1010B0E
:100D4000F1DC21465046DDE90F2300F019F8064496
:100D50006D1C1BE60928010030313233343536373B
:100D600038396162636465660000000030313233F7
:100D70003435363738394142434445460000000097
:100D80002DE9F041044600251E461746880404D488
:100D900005E039462020B0476D1C641EF9D5284671
:100DA000BDE8F0812DE9F041044600251E4690463D
:100DB000C80301D5302700E02027880404D505E0CA
:100DC00041463846B0476D1C641EF9D52846BDE83B
:100DD000F08110B5A02000F007FA08B9012010BD7D
:100DE00000F0BEFA0020FAE701B502E00098401ECC
:100DF000009000980028F9D108BD000010B5ADF5AD
:100E0000007D4FF480716846FFF7B5F9002404E0D7
:100E1000FF2040A90855601C84B2FF2CF8DDFFF7C5
:100E2000D8FF28B916A0FFF783FD0DF5007D10BD92
:100E30004FF48072002140A800F046F918B916A0BE
:100E4000FFF776FDF1E719A0FFF772FD4FF480720E
:100E50000021684600F038F800240DE01DF8041069
:100E600017A0FFF765FD04F00F000F2802D10EA0B8
:100E7000FFF75EFD601C84B2FF2CEFDD00BFD4E7FE
:100E8000C3BBD3D0BCECB2E2B5BD454550524F4DCB
:100E90002121210D0A000000B2C1B3FD6565707209
:100EA0006F6DB3F6B4EDA3A10D0A0000B2C1B3FD9E
:100EB000656570726F6DB3C9B9A6A3A10D0A000074
:100EC00020253032580000002DE9F04106460F463B
:100ED000154600F029FAA02000F0E2F900F05AFAD5
:100EE00000B125E0F8B200F0DBF900F053FA00B1F0
:100EF0001EE000F019FAA12000F0D2F900F04AFA41
:100F000000B115E000240CE000F0A2F93055681E95
:100F1000A04202D000F02AF901E000F07BF9601C49
:100F200084B2AC42F0DB00F01BFA0120BDE8F08196
:100F300000F016FA0020F9E710B5ADF5007D4FF48A
:100F4000807140A8FFF717F94FF480716846FFF7EA
:100F500012F9FFF73EFF30B92BA0FFF7E9FC0020A4
:100F60000DF5007D10BD002403E040A90C55601C68
:100F700084B2FF2CF9DD4FF48072002140A800F00C
:100F8000A3F820B926A0FFF7D3FC0020E8E729A0AA
:100F9000FFF7CEFC2C48FFF727FF4FF480720021AB
:100FA0006846FFF791FF20B928A0FFF7C1FC002099
:100FB000D6E72BA0FFF7BCFC00241DE01DF80400C1
:100FC00040A9095D884209D01DF804102BA0FFF745
:100FD000AFFC2CA0FFF7ACFC0020C1E71DF804100B
:100FE00031A0FFF7A5FC04F00F000F2802D122A0CA
:100FF000FFF79EFC601C84B2FF2CDFDD2CA0FFF706
:1010000097FC0120ACE70000C3BBD3D0BCECB2E23C
:10101000B5BDB4AED0D0454550524F4D210D0A005C
:10102000D0B4656570726F6DB3F6B4EDA3A10D0A0F
:1010300000000000D0B4656570726F6DB3C9B9A6C9
:10104000A3A10D0A00000000FFFF0F00B6C16565F7
:1010500070726F6DB3F6B4EDA3A10D0A000000002D
:10106000B6C1656570726F6DB3C9B9A6A3ACCAFD90
:10107000BEDDC8E7CFC2A3BA0D0A00003078253024
:1010800032582000B4EDCEF33A454550524F4DB69C
:10109000C1B3F6D3EBD0B4C8EBB5C4CAFDBEDDB264
:1010A000BBD2BBD6C2000000202530325800000061
:1010B000656570726F6DB6C1D0B4B2E2CAD4B3C9FF
:1010C000B9A60D0A000000002DE9F0470746884642
:1010D0009146464600242CE014B106F00700E8B91A
:1010E00000F03EF900250AE000F01EF9A02000F013
:1010F000D7F800F04FF900B904E0681C85B2B5F5E7
:101100007A7FF1DB00BFB5F57A7F00D118E0F0B24D
:1011100000F0C6F800F03EF900B111E0385D00F0D3
:10112000BFF800F037F900B10AE0701C86B2601C0D
:1011300084B24C45D0DB00F013F90120BDE8F08704
:1011400000F00EF90020F9E770B504460D46E1B253
:101150000548FFF7E6FB00BF80210348FFF714FBBB
:101160000028F9D0204670BD0038014010B5114864
:10117000006840F080000F49086000F043F80D4817
:10118000001F006840F040000A49091F086000F095
:1011900039F80848006840F040000649086000F04F
:1011A00031F80448001F006840F080000149091F21
:1011B000086010BD140C014008B501210820FFF79C
:1011C00057F9C020ADF8000003208DF8020014206C
:1011D0008DF8030069460348FFF73EF800F0C0F8B9
:1011E00008BD0000000C014070B50446FFF7E4FFA5
:1011F00000F09AF8204600F053F800F0CBF80546CE
:10120000284670BD002001E0411CC8B20A28FBDB63
:101210007047000010B50D48006840F080000B4991
:101220000860FFF7EFFF0948006840F040000749F9
:101230000860FFF7E7FF0548001D006840F0400028
:101240000249091D0860FFF7DDFF10BD100C0140C9
:1012500070B5002400251DE06006040E0F480068EC
:1012600040F040000D490860FFF7CCFF0B480838FC
:10127000006800F0800008B1601CC4B20748001D7F
:10128000006840F040000549091D0860FFF7BAFFFB
:10129000681CC5B2082DDFDB204670BD100C014074
:1012A00070B504461F48006840F040001D490860C2
:1012B000FFF7A8FF002527E004F0800040B119489F
:1012C000001F006840F080001649091F086005E013
:1012D0001448006840F08000124908606006040E5F
:1012E0001048001F006840F040000E49091F0860C8
:1012F000FFF788FF0B48006840F04000094908608C
:10130000FFF780FF681CC5B2082DD5DB0548001F1C
:10131000006840F080000349091F0860FFF772FF72
:1013200070BD0000140C014010B50C48006840F07E
:1013300080000A4908600846006840F040000860E4
:10134000FFF760FF0548001D006840F0800003497A
:10135000091D0860FFF756FF10BD0000100C01408A
:1013600010B50B48006840F0800009490860081F6C
:10137000006840F04000091F0860FFF743FF044881
:10138000001F006840F080000149091F086010BD7F
:10139000140C014010B51248006840F0800010495C
:1013A0000860FFF72FFF0E48006840F040000C492E
:1013B0000860FFF727FF0A480838006800F080003F
:1013C00008B1012400E000240548001D006840F039
:1013D00040000349091D0860FFF714FF204610BDB7
:1013E000100C0140FEF7C8FFFFF786F920201449D2
:1013F0000860012008600220091D086011A0FFF7A5
:1014000097FA15A0FFF794FAFFF7F8FCFFF794FDA1
:10141000012809D120200A4908600120091D08601F
:101420000220091F086008E020200549091D086006
:101430000120091F08600220086000BFFEE70000CD
:10144000100C0140BFAAB7A2B0E5CAC773746D33D0
:1014500032663130330A0000656570726F6D20C8E6
:10146000EDBCFEC4A3C4E2693263B2E2CAD4C0FDDB
:10147000B3CC200D0A0000009814000800000020E2
:101480001C00000050090008B41400081C000020D3
:1014900004040000600900080000000000010203CD
:1014A00004010203040607080902040608000000FC
:0414B0000000000038
:0400000508000131BD
:00000001FF
