:020000040800F2
:100000004804002045010008650900089B05000818
:10001000610900082F020008EF0E00080000000030
:10002000000000000000000000000000290B000894
:100030003302000800000000110A0008150C000837
:100040005F0100085F0100085F0100085F01000810
:100050005F0100085F0100085F0100085F01000800
:100060005F0100085F0100085F0100085F010008F0
:100070005F0100085F0100085F0100085F010008E0
:100080005F0100085F0100085F0100085F010008D0
:100090005F0100085F0100085F0100085F010008C0
:1000A0005F0100085F0100085F0100085F010008B0
:1000B0005F0100085F0100085F0100085F010008A0
:1000C0005F0100085F0100085F0100085F01000890
:1000D0005F010008790C00085F0100085F0100085B
:1000E0005F0100085F0100085F0100085F01000870
:1000F0005F0100085F0100085F0100085F01000860
:100100005F0100085F0100085F0100085F0100084F
:100110005F0100085F0100085F0100085F0100083F
:100120005F0100085F0100085F0100085F0100082F
:10013000DFF80CD000F04AF80048004761120008D0
:10014000480400200648804706480047FEE7FEE7CF
:10015000FEE7FEE7FEE7FEE7FEE7FEE7FEE7FEE777
:10016000190C0008310100082DE9F05F0546002058
:1001700092469B4688460646814640241BE0284618
:1001800041464746224600F042F853465A46C01AB6
:10019000914110D311461846224600F029F82D1A35
:1001A00067EB01084F4622460120002100F020F8AD
:1001B00017EB00094E41201EA4F10104DFDC484684
:1001C00031462A464346BDE8F09F0000064C074DE5
:1001D00006E0E06840F0010394E807009847103417
:1001E000AC42F6D3FFF7A8FFE013000800140008A4
:1001F000202A04DB203A00FA02F1002070479140E7
:10020000C2F1200320FA03F3194390407047202ADB
:1002100004DB203A21FA02F00021704721FA02F3B0
:10022000D040C2F12002914008431946704700BFF8
:10023000FEE7704770B504460D460121214800F0E5
:10024000B1FA00BF20491F4800F0B5F90128F9D1E3
:100250000022A0211B4800F055FB00BF1B49194894
:1002600000F0A9F90128F9D100BF1849891E1548E5
:1002700000F0A1F90128F8D12146124800F04BFB0B
:1002800000BF1249891E0F4800F095F90128F8D1E6
:1002900029460C4800F03FFB00BF0C49891E094865
:1002A00000F089F90128F8D100BF0849891C0548E8
:1002B00000F081F90128F8D10121024800F07EFA0E
:1002C00070BD0000005400400100030082000700E0
:1002D00070B506460C4615460121204800F062FA2A
:1002E00000BF1F491D4800F066F90128F9D100221E
:1002F000A0211A4800F006FB00BF1A49174800F079
:100300005AF90128F9D13146144800F004FB00BF26
:100310001449891E114800F04EF90128F8D10EE069
:1003200021780E4800F0F7FA641C681EC5B200BFC1
:100330000C49891E094800F03EF90128F8D1002D2A
:10034000EED100BF0749891C044800F034F90128A8
:10035000F8D10121014800F031FA70BD005400408D
:10036000010003008200070070B506460C461546E2
:1003700001212F4800F016FA00BF2E492C4800F04A
:100380001AF90128F9D10022A021294800F0BAFA6F
:1003900000BF2949264800F00EF90128F9D131465D
:1003A000234800F0B8FA00BF2349891E204800F016
:1003B00002F90128F8D101211D4800F0F3F900BF2E
:1003C0001C491B4800F0F7F80128F9D10122A021AF
:1003D000174800F097FA00BF1649491C144800F06E
:1003E000EAF80128F8D118E0012D07D100211048C2
:1003F00000F0D5F80E4800F081FA207000BF0D49DA
:100400003F310B4800F0D7F80128F8D1084800F038
:1004100075FA2070641C681EC5B2002DE4D101215C
:10042000034800F0CBF90121014800F0B8F870BD95
:1004300000540040010003008200070010B500BF17
:1004400001210D4800F0AEF900BF0C490A4800F048
:10045000C1F90028F9D00022A021074800F052FA83
:100460000649491C044800F0B5F90028E8D00121EC
:10047000014800F0A3F910BD005400400100001035
:100480002DE9F0410246002500260020002300242B
:10049000002791F803C00CF00F0591F803C00CF091
:1004A000100CBCF1000F03D091F802C04CEA050516
:1004B00091F800C0BCF1000F31D0146800202BE08F
:1004C0004FF0010C0CFA00F3B1F800C00CEA03067F
:1004D0009E4220D183004FF00F0C0CFA03F7BC436F
:1004E00005FA03FC4CEA040491F803C0BCF1280FA0
:1004F00006D14FF0010C0CFA00FCC2F814C00AE05F
:1005000091F803C0BCF1480F05D14FF0010C0CFA73
:1005100000FCC2F810C0401C0828D1D31460B1F808
:1005200000C0BCF1FF0F34DD546800202EE000F164
:10053000080C4FF0010808FA0CF3B1F800C00CEAFF
:1005400003069E4221D183004FF00F0C0CFA03F7F3
:10055000BC4305FA03FC4CEA040491F803C0BCF167
:10056000280F05D100F1080C08FA0CF8C2F8148025
:1005700091F803C0BCF1480F07D100F1080C4FF00F
:10058000010808FA0CF8C2F81080401C0828CED3E5
:100590005460BDE8F0810161704700BFFEE721B102
:1005A000028842F48062028004E002884FF6FF3342
:1005B0001A400280704770B50246002400250023CF
:1005C0000020958A138B1B0445EA030626F07F441E
:1005D00004EA01068E4201D1012000E0002070BD36
:1005E00021B1028842F00102028004E002884FF645
:1005F000FE731A40028070472DE9F04707460D460A
:1006000014460026B146B246B0462846E91705EB27
:100610005171C910A5EBC10101F0FF0ACAF1080030
:1006200000F0FF082046E11704EB5171C1F3C70643
:10063000E11704EB5171C910A4EBC10101F0FF09EE
:10064000BAF1000F26D13EB94A4639462846FFF78F
:100650003FFEFFF7F3FE5FE00AE008223946284636
:10066000FFF736FEFFF7EAFE05F10800C5B20837CE
:100670003000A6F10101CEB2EFD1002E4CD1B9F17C
:10068000000F49D04A4639462846FFF721FEFFF7BA
:10069000D5FE41E03EB94A4639462846FFF718FEE6
:1006A000FFF7CCFE38E0A4EB080084B22046E11747
:1006B00004EB5171C1F3C706E11704EB5171C91086
:1006C000A4EBC10101F0FF09B8F1000F0AD04246C6
:1006D00039462846FFF7FCFDFFF7B0FE05EB0800A2
:1006E000C5B247440CE0082239462846FFF7F0FD22
:1006F000FFF7A4FE701EC6B205F10800C5B20837A8
:10070000002EF0D1B9F1000F06D04A4639462846EE
:10071000FFF7DEFDFFF792FEBDE8F08700B585B07C
:100720000121082000F086F90121480500F072F946
:100730004020ADF810001C208DF8130003208DF828
:10074000120004A91448FFF79BFE8020ADF81000AA
:100750001C208DF8130004A90F48FFF791FE4FF4F9
:100760008060ADF80A000001ADF80C000B48009065
:100770004BF6FF70ADF806000020ADF804005F20D6
:10078000ADF808006946064800F042F80121044827
:10079000FFF726FF05B000BD000C0140801A0600DF
:1007A0000054004021B1028842F48072028004E0CB
:1007B00002884FF6FF631A400280704721B1028819
:1007C00042F40072028004E002884FF6FF531A40A0
:1007D000028070470CB5024600200023019300936D
:1007E00000920B0F019321F07F41019B1BB1009BF5
:1007F0001433009303E0090C009B18330093009B13
:100800001B680B400BB1012000E000200CBD000074
:100810002DE9F04385B004460D460026B146042775
:10082000DFF8CC80A6884FF6C0700640684600F01E
:1008300011F9DDF808802F48B8FBF0F01FFA80F9B5
:1008400046EA0906A68020884FF6FE7108402080FF
:1008500000262949286888420CD828684000B8FB3F
:10086000F0F087B2042F00DA04273E4309F10100BB
:10087000208427E0E8884BF6FF71884206D128687B
:1008800000EB4000B8FBF0F087B209E0286800EB0D
:10089000C00101EB0010B8FBF0F087B247F48047CD
:1008A000C7F30B0008B947F0010747F400400643BF
:1008B0004FF4967009FB00F04FF47A7190FBF1F061
:1008C000401C2084A683208840F0010020802688D8
:1008D0004FF6F5300640A88869890843064326800C
:1008E000A88929890843208105B0BDE8F08300006C
:1008F00000127A0040420F00A08601000146088ADB
:10090000C0B2704712B141F0010102E04FF6FE7330
:1009100019400182704701827047000008B501212B
:10092000082000F087F82320ADF8000010208DF893
:10093000030003208DF8020069460848FFF7A0FD78
:1009400020210648FFF727FE01210448FFF723FE78
:1009500002210248FFF71FFE08BD0000000C014005
:1009600000BFFEE7704708B54FF4A06000F046F8FE
:1009700025208DF8000001208DF801008DF802007F
:100980008DF80300684600F001F808BD70B500213D
:1009900000230F22C47804B3154C246804F4E064E7
:1009A000C4F5E064210AC1F10403CA40447804FAA2
:1009B00003F184781440214309010E4C0678A155B7
:1009C000047804F01F050124AC4005786D11AD00DA
:1009D00005F1E025C5F8004109E0047804F01F05A1
:1009E0000124AC40044D0678761145F8264070BDD0
:1009F0000CED00E000E400E080E100E0024901438A
:100A0000024A1160704700000000FA050CED00E09A
:100A10007047000029B1064AD2690243044BDA61EB
:100A200004E0034AD2698243014BDA617047000057
:100A30000010024029B1064A92690243044B9A61B0
:100A400004E0034A92698243014B9A6170470000B7
:100A50000010024030B500210022002400232D4D5B
:100A60006D6805F00C0121B1042905D0082923D1B6
:100A700005E0294D056022E0274D05601FE0254D6A
:100A80006D6805F47012234D6D6805F480340225FD
:100A900005EB92421CB9214D554305600BE01D4DFD
:100AA0006D6805F400351DB11C4D5543056002E02D
:100AB000194D5543056002E0174D056000BF00BFAA
:100AC000144D6D6805F0F0010909154D6B5C056862
:100AD000DD4045600F4D6D6805F4E061090A104D79
:100AE0006B5C4568DD4085600A4D6D6805F46051BA
:100AF000C90A0B4D6B5C4568DD40C560054D6D68EE
:100B000005F44041890B074D6B5CC568B5FBF3F5F7
:100B1000056130BD0010024000127A0000093D005E
:100B20001F0000202F000020704710B500F002F8D1
:100B300010BD00000CB50020019000903348006803
:100B400040F480303149086000BF3048006800F44C
:100B5000003000900198401C0190009818B901984D
:100B6000B0F5A06FF1D12948006800F4003010B151
:100B70000120009001E0002000900098012843D15E
:100B80002348006840F010002149086008460068CA
:100B900020F0030008600846006840F0020008608A
:100BA0001A48406819494860084640684860084645
:100BB000406840F4806048600846406820F47C103B
:100BC00048600846406840F4E810486008460068FD
:100BD00040F08070086000BF0C48006800F00070B2
:100BE0000028F9D00948406820F003000749486010
:100BF0000846406840F00200486000BF0348406873
:100C000000F00C000828F9D10CBD000000100240D3
:100C1000002002407047000010B51348006840F003
:100C200001001149086008464068104908400E4913
:100C30004860084600680E4908400B4908600846AD
:100C4000006820F4802008600846406820F4FE0018
:100C500048604FF41F008860FFF767FF4FF00060A7
:100C60000449086010BD0000001002400000FFF8B9
:100C7000FFFFF6FE08ED00E010B540F225510748F1
:100C800000F071F848B1054800F028F904490870EF
:100C900008460178014800F026F910BD00380140EF
:100CA0001E00002021B1828942F40052828104E0BA
:100CB00082894DF6FF731A408281704700B585B076
:100CC00001210420FFF7B6FE01218803FFF7B2FEE1
:100CD0004FF40070ADF8100018208DF813000320B9
:100CE0008DF8120004A91748FFF7CAFB4FF4806083
:100CF000ADF8100004208DF8130004A91148FFF787
:100D0000BFFB4FF4E13000900020ADF80400ADF8D7
:100D10000600ADF80800ADF80C000C20ADF80A0094
:100D20006946094800F06EF8FFF71DFE012240F207
:100D30002551054800F041F801210348FFF7B2FFB3
:100D400005B000BD00080140003801400246002007
:100D5000B1F5007F00D100BF13880B400BB101201B
:100D600000E00020704770B50246002400230025F3
:100D7000002040F66A16B14200D100BFC1F342150F
:100D800001F01F03012606FA03F3012D02D1968913
:100D9000334006E0022D02D1168A334001E0968AE4
:100DA00033400C12012606FA04F41688344013B1BD
:100DB0000CB1012000E0002070BDF0B50346002416
:100DC00000260025002040F66A17B94200D100BF76
:100DD0001846C1F3421401F01F06012707FA06F571
:100DE000012C01D10C3004E0022C01D1103000E0C4
:100DF00014301AB107682F43076002E00768AF4359
:100E00000760F0BD2DE9F04786B005460E46002488
:100E1000A24600BFA1460027B08900B100BF2F46FF
:100E20002C8A4CF6FF700440F08804432C82AC8975
:100E30004EF6F3100440B0883189084371890843A5
:100E40000443AC81AC8A4FF6FF400440B0890443B0
:100E5000AC8201A8FFF7FEFD1F48874202D1DDF8F2
:100E600010A001E0DDF80CA0A88900F4004040B11A
:100E70000AEBCA0000EB0A1031684900B0FBF1F838
:100E800007E00AEBCA0000EB0A1031688900B0FBEA
:100E9000F1F86420B8FBF0F004012009642101FBA3
:100EA0001089A88900F4004040B1322000EBC9004D
:100EB000B0FBF1F000F00700044308E0322000EB43
:100EC00009106421B0FBF1F000F00F0004432C8105
:100ED00006B0BDE8F0870000003801400146888870
:100EE000C0F308007047C1F308028280704700BF5A
:100EF000FEE770B504460D4629462046FFF7F3FF8E
:100F000000BF80212046FFF721FF0028F9D070BDE7
:100F100070B506460C46002504E0615D3046FFF7DB
:100F2000E8FF6D1C605D0028F7D100BF402130460E
:100F3000FFF70CFF0028F9D070BD00000FB4054B7F
:100F400010B503A9044A029800F018F810BC5DF827
:100F500014FB00003D1200083400002002E008C825
:100F6000121F08C1002AFAD170477047002001E023
:100F700001C1121F002AFBD1704700002DE9FF4F6D
:100F80008DB09B460F460446002606E025280BD070
:100F90005A460F999047641C761C20780028F5D19A
:100FA00011B03046BDE8F08F0025A84601229849CF
:100FB00000E0054314F8013F203B02FA03F0084229
:100FC000F7D120782E2817D114F8010F45F0040529
:100FD0002A280ED06FF02F022078A0F130010929C5
:100FE0000AD808EB880102EB410100EB0108641C00
:100FF000F2E757F8048B641C20786C280DD004DCD1
:101000004C2812D06A2811D104E074280DD07A2817
:101010000CD10AE045F4001507E0617845F480152D
:10102000814202D1641C05F58015641C2278692A6E
:1010300045D008DC002AB3D0582A69D0632A10D0E2
:10104000642A08D13BE0702A67D0732A13D0752A2E
:101050005CD0782A5CD010465A460F999047761C8F
:10106000D3E017F8040B8DF8000000208DF8010084
:10107000E946012003E057F8049B4FF0FF30690771
:101080004FF0000501D40AE06D1C45450DDA85429C
:10109000FADB19F805100029F6D106E06D1C85422F
:1010A000FCDB19F805100029F8D12E4404E019F8EA
:1010B000010B5A460F9990476D1EF8D2A5E00A2001
:1010C0000021CDE90801C5F3025002280DD001CF5F
:1010D000C117031E71F100030DDA4FF0000CD0EBC5
:1010E0000C006CEB01012D2308E0FF1D27F0070722
:1010F000F7E80201EDE72B0504D52B238DF8283006
:1011000001233BE0EB0739D02023F7E70A2000E07A
:1011100010200021CDE9080107E01020002145F052
:101120000405CDE908014FF00808C5F30250022874
:101130000FD001CF00214FF0000A2B071FD5702AD6
:101140000DD0DDE908C38CF0100C5CEA030C0CD068
:1011500015E0FF1D27F00707F7E80201EBE7402243
:101160008DF828204FF0010A0BE050EA010306D069
:1011700030238DF828308DF8292002239A46582AEA
:1011800004D024A20DF120090B9209E026A2F9E770
:10119000DDE90823FEF7E8FF0B9B9B5C09F8013DA6
:1011A00050EA0102F4D1ADEB090020300890680745
:1011B00001D44FF001080899884502DDA8EB010031
:1011C00000E000208046002506E00AA85A46405D5F
:1011D0000F9990476D1C761C5545F6DB04E03020D6
:1011E0005A460F999047761CB8F10001A8F1010802
:1011F000F5DC05E019F8010B5A460F999047761C6B
:101200000899481E08900029F4DC641CC5E600001B
:1012100009280100303132333435363738396162CC
:101220006364656600000000303132333435363790
:1012300038394142434445460000000070B5044639
:101240000D46E1B20548FFF74EFE00BF802103487E
:10125000FFF77CFD0028F9D0204670BD0038014022
:101260000024FFF75BFBFFF729FDFFF757FA40A1CA
:101270004548FFF74DFE45A0FFF760FE55210B20C6
:10128000FEF7D8FFFFF7DAF8012246490B20FFF7F7
:101290006BF84448017844A0FFF750FE0622484905
:1012A0001120FFF715F8FFF7C9F806223D49112074
:1012B000FFF75AF800BF06E03A48015D41A0FFF78A
:1012C0003DFE601CC4B2062CF6DB162211213F48FD
:1012D000FFF792F9162233491120FFF745F8002451
:1012E00011E03048015D3AA0FFF728FEE11704EB5A
:1012F0005171C910A4EBC101072902D135A0FFF734
:101300001DFE601CC4B2162CEBDB30E032480078C6
:10131000012804D002280BD003281ED113E020207E
:101320002E4908600120091F0860022008601DE0A6
:1013300020202A49091F08600120091D0860022099
:10134000091F086012E020202449091F08600120BD
:1013500008600220091D086008E020201F49091FBD
:101360000860012008600220086000BF00BFCDE7D0
:10137000D5E2CAC7D2BBB8F6493243CDA8D1B6CA66
:10138000B5D1E9A3A10A000000380140D5E2CAC7DF
:10139000D2BBB8F6493243CDA8D1B6CAB5D1E90A15
:1013A0000000000038000020BDD3CAD5B5BDB5C4CB
:1013B000CAFDBEDDCEAA3A307825780D0A000000BD
:1013C0000000002025640D0A000000000800002035
:1013D000256420000D0A00001E000020140C0140AE
:1013E0000014000800000020380000005C0F000816
:1013F0003814000838000020100400006C0F0008AA
:10140000020304050607000001020304050607089D
:10141000090A0B0C0D0E0F101112131415160000F3
:101420000000000102030401020304060708090288
:081430000406080000000000A2
:0400000508000131BD
:00000001FF
