:020000040800F2
:1000000020080020450100084D0500087503000880
:1000100049050008510200089F0F00080000000079
:10002000000000000000000000000000D90B0008E4
:100030005502000800000000F9050008C50C000882
:100040005F0100085F0100085F0100085F01000810
:100050005F0100085F0100085F0100085F01000800
:100060005F0100085F0100085F0100085F010008F0
:100070005F0100085F0100085F0100085F010008E0
:100080005F0100085F0100085F0100085F010008D0
:100090005F0100085F0100085F0100085F010008C0
:1000A0005F0100085F0100085F0100085F010008B0
:1000B0005F0100085F0100085F0100085F010008A0
:1000C0005F0100085F0100085F0100085F01000890
:1000D0005F010008290D00085F0100085F010008AA
:1000E0005F0100085F0100085F0100085F01000870
:1000F0005F0100085F0100085F0100085F01000860
:100100005F0100085F0100085F0100085F0100084F
:100110005F0100085F0100085F0100085F0100083F
:100120005F0100085F0100085F0100085F0100082F
:10013000DFF80CD000F04AF800480047B51400087A
:10014000200800200648804706480047FEE7FEE7F3
:10015000FEE7FEE7FEE7FEE7FEE7FEE7FEE7FEE777
:10016000C90C0008310100082DE9F05F05460020A8
:1001700092469B4688460646814640241BE0284618
:1001800041464746224600F042F853465A46C01AB6
:10019000914110D311461846224600F029F82D1A35
:1001A00067EB01084F4622460120002100F020F8AD
:1001B00017EB00094E41201EA4F10104DFDC484684
:1001C00031462A464346BDE8F09F0000064C074DE5
:1001D00006E0E06840F0010394E807009847103417
:1001E000AC42F6D3FFF7A8FF5016000870160008BF
:1001F000202A04DB203A00FA02F1002070479140E7
:10020000C2F1200320FA03F3194390407047202ADB
:1002100004DB203A21FA02F00021704721FA02F3B0
:10022000D040C2F12002914008431946704710B5F2
:10023000034609E018780C78A04201D0002010BDD8
:10024000501E82B25B1C491C002AF3D10120F6E744
:1002500000BFFEE770472DE9F04102460025002669
:10026000002000230024002791F803C00CF00F05A4
:1002700091F803C00CF0100CBCF1000F03D091F802
:1002800002C04CEA050591F800C0BCF1000F31D066
:10029000146800202BE04FF0010C0CFA00F3B1F8C9
:1002A00000C00CEA03069E4220D183004FF00F0CE1
:1002B0000CFA03F7BC4305FA03FC4CEA040491F87A
:1002C00003C0BCF1280F06D14FF0010C0CFA00FC62
:1002D000C2F814C00AE091F803C0BCF1480F05D180
:1002E0004FF0010C0CFA00FCC2F810C0401C0828AA
:1002F000D1D31460B1F800C0BCF1FF0F34DD5468F5
:1003000000202EE000F1080C4FF0010808FA0CF371
:10031000B1F800C00CEA03069E4221D183004FF0E1
:100320000F0C0CFA03F7BC4305FA03FC4CEA040477
:1003300091F803C0BCF1280F05D100F1080C08FAB0
:100340000CF8C2F8148091F803C0BCF1480F07D133
:1003500000F1080C4FF0010808FA0CF8C2F8108000
:10036000401C0828CED35460BDE8F081416170473D
:100370000161704700BFFEE721B1028842F001022F
:10038000028004E002884FF6FE731A400280704734
:1003900000B585B00121082000F040F90121480591
:1003A00000F02CF94020ADF810001C208DF813004F
:1003B00003208DF8120004A91448FFF74CFF802099
:1003C000ADF810001C208DF8130004A90F48FFF7AA
:1003D00042FF4FF48060ADF80A000001ADF80C0058
:1003E0000B4800904BF6FF70ADF806000020ADF80A
:1003F00004005F20ADF808006946064800F00CF8DC
:1004000001210448FFF7B8FF05B000BD000C014012
:10041000801A0600005400402DE9F04385B00446E0
:100420000D460026B1460427DFF8CC80A6884FF69B
:10043000C0700640684600F001F9DDF808802F48DA
:10044000B8FBF0F01FFA80F946EA0906A68020887A
:100450004FF6FE710840208000262949286888420E
:100460000CD828684000B8FBF0F087B2042F00DAFF
:1004700004273E4309F10100208427E0E8884BF679
:10048000FF71884206D1286800EB4000B8FBF0F00D
:1004900087B209E0286800EBC00101EB0010B8FB4F
:1004A000F0F087B247F48047C7F30B0008B947F074
:1004B000010747F4004006434FF4967009FB00F033
:1004C0004FF47A7190FBF1F0401C2084A6832088C1
:1004D00040F00100208026884FF6F5300640A888BD
:1004E0006989084306432680A88929890843208111
:1004F00005B0BDE8F083000000127A0040420F0012
:10050000A086010008B50121082000F087F823200B
:10051000ADF8000010208DF8030003208DF80200D4
:1005200069460848FFF797FE20210648FFF720FF9D
:1005300001210448FFF71CFF02210248FFF718FFC2
:1005400008BD0000000C014000BFFEE7704708B581
:100550004FF4A06000F046F825208DF8000001203F
:100560008DF801008DF802008DF80300684600F058
:1005700001F808BD70B5002100230F22C47804B330
:10058000154C246804F4E064C4F5E064210AC1F168
:100590000403CA40447804FA03F1847814402143E8
:1005A00009010E4C0678A155047804F01F050124BA
:1005B000AC4005786D11AD0005F1E025C5F80041AE
:1005C00009E0047804F01F050124AC40044D0678CE
:1005D000761145F8264070BD0CED00E000E400E027
:1005E00080E100E002490143024A116070470000C7
:1005F0000000FA050CED00E07047000029B1064A42
:10060000D2690243044BDA6104E0034AD2698243AF
:10061000014BDA61704700000010024029B1064A20
:1006200092690243044B9A6104E0034A926982434F
:10063000014B9A61704700000010024030B5002164
:100640000022002400232D4D6D6805F00C0121B11E
:10065000042905D0082923D105E0294D056022E0B1
:10066000274D05601FE0254D6D6805F47012234D80
:100670006D6805F48034022505EB92421CB9214DCA
:10068000554305600BE01D4D6D6805F400351DB147
:100690001C4D5543056002E0194D5543056002E0CD
:1006A000174D056000BF00BF144D6D6805F0F001E7
:1006B0000909154D6B5C0568DD4045600F4D6D689F
:1006C00005F4E061090A104D6B5C4568DD4085600A
:1006D0000A4D6D6805F46051C90A0B4D6B5C4568A5
:1006E000DD40C560054D6D6805F44041890B074D3F
:1006F0006B5CC568B5FBF3F5056130BD00100240C9
:1007000000127A0000093D000800002018000020B7
:1007100021B1028842F04002028004E002884FF6D4
:10072000BF731A400280704710B5044600F044FAC7
:1007300001210C48FFF71AFE202000F005F9C4F350
:10074000034000F001F9C4F3032000F0FDF8E0B22B
:1007500000F0FAF801210348FFF70AFE00F0C6F99D
:1007600010BD0000001001402DE9F04707460D467E
:1007700014460026B146B246B0462846E91705EBB6
:1007800011610912A5EB012101F0FF0ACAF1000075
:1007900000F0FF082046E11704EB1161C1F30726C2
:1007A000E11704EB11610912A4EB012101F0FF092B
:1007B000BAF1000F20D12EB922463946284600F062
:1007C000AFF953E008E04FF480723946284600F054
:1007D000A7F9EDB207F580773000A6F10101CEB29E
:1007E000F1D1002E42D1B9F1000F3FD04A4639462F
:1007F000284600F095F939E02EB94A463946284690
:1008000000F08EF932E0A4EB080084B22046E11734
:1008100004EB1161C1F30726E11704EB1161091222
:10082000A4EB012101F0FF09B8F1000F08D0424606
:100830003946284600F074F905EB0800C5B2474474
:100840000AE04FF480723946284600F069F9701EBC
:10085000C6B2EDB207F58077002EF2D1B9F1000FE4
:1008600004D04A463946284600F05AF9BDE8F087D8
:1008700000B587B001210803FFF7D0FE0121142045
:10088000FFF7CCFE2020ADF8180018208DF81B00D3
:1008900003208DF81A0006A92848FFF7DCFC802009
:1008A000ADF8180018208DF81B0003208DF81A00F1
:1008B00006A92248FFF7CFFC4020ADF8180004201D
:1008C0008DF81B0003208DF81A0006A91B48FFF7BE
:1008D000C2FC0120ADF8180010208DF81B00032089
:1008E0008DF81A0006A91648FFF7B5FC0121144837
:1008F000FFF73EFD0020ADF810000120ADF80C0020
:100900000220ADF80A000020ADF81400ADF8080090
:10091000ADF80400ADF812004FF48270ADF8060097
:100920004FF40070ADF80E0001A9064800F05AF827
:1009300001210448FFF7ECFE07B000BD00080140AC
:10094000001001400030014010B504464FF48050C3
:100950001B4908600CE01A480068401E18490860EE
:100960000846006820B9002000F0A0F8C0B210BD11
:100970000221144800F028F80028ECD02146114844
:1009800000F02EF84FF480500D4908600CE00C4840
:100990000068401E0A4908600846006820B9012026
:1009A00000F084F8C0B2E2E70121064800F00CF83C
:1009B0000028ECD0034800F010F8C0B2D7E70000E0
:1009C00004000020003001400246002013890B4043
:1009D0000BB1012000E00020704701468889704774
:1009E0008181704710B50022028802F441520B88C1
:1009F0004C8823438C882343CC8823430C8923438E
:100A00004C8923438C892343CC8923431A43028096
:100A1000838B4FF2FF74234083830B8A038210BDC4
:100A200070B504460D46164601210F48FFF79EFC9F
:100A30000320FFF789FFC4F30340FFF785FFC4F3EA
:100A40000320FFF781FFE0B2FFF77EFF05E0002003
:100A5000FFF77AFF28706D1C761E002EF7D101215A
:100A60000148FFF785FC70BD0010014010B500245F
:100A700001210D48FFF77AFC9F20FFF765FF00205A
:100A8000FFF762FF044624020020FFF75DFF0443E6
:100A900024020020FFF758FF044301210248FFF71A
:100AA00067FC204610BD00000010014010B5044650
:100AB000214602A000F09AFA002010BD3C3C2D46D1
:100AC0004C4153482D4552524F522D3E3E20493203
:100AD0004320B5C8B4FDB3ACCAB1216572726F7260
:100AE000436F6465203D2025640A000010B5002492
:100AF00001210A48FFF73AFC0520FFF725FF00BF58
:100B00000020FFF721FF044604F001000028F7D180
:100B100001210248FFF72CFC10BD0000001001402D
:100B200070B504460E46154600F046F801211448FB
:100B3000FFF71CFC0220FFF707FFC4F30340FFF799
:100B400003FFC4F30320FFF7FFFEE0B2FFF7FCFE54
:100B5000B5F5807F04D94FF480750AA000F046FAFD
:100B600004E03078FFF7F0FE761C6D1E002DF8D102
:100B700001210348FFF7FCFBFFF7B8FF70BD000041
:100B8000001001403C3C2D464C4153482D455252EB
:100B90004F522D3E3E205350495F464C4153485FD3
:100BA00050616765577269746520746F6F206C615E
:100BB000726765210A00000010B501210548FFF7A2
:100BC000D5FB0620FFF7C0FE01210248FFF7D0FB4E
:100BD00010BD000000100140704710B500F002F891
:100BE00010BD00000CB50020019000903348006853
:100BF00040F480303149086000BF3048006800F49C
:100C0000003000900198401C0190009818B901989C
:100C1000B0F5A06FF1D12948006800F4003010B1A0
:100C20000120009001E0002000900098012843D1AD
:100C30002348006840F01000214908600846006819
:100C400020F0030008600846006840F002000860D9
:100C50001A48406819494860084640684860084694
:100C6000406840F4806048600846406820F47C108A
:100C700048600846406840F4E8104860084600684C
:100C800040F08070086000BF0C48006800F0007001
:100C90000028F9D00948406820F00300074948605F
:100CA0000846406840F00200486000BF03484068C2
:100CB00000F00C000828F9D10CBD00000010024023
:100CC000002002407047000010B51348006840F053
:100CD00001001149086008464068104908400E4963
:100CE0004860084600680E4908400B4908600846FD
:100CF000006820F4802008600846406820F4FE0068
:100D000048604FF41F008860FFF767FF4FF00060F6
:100D10000449086010BD0000001002400000FFF808
:100D2000FFFFF6FE08ED00E010B540F22551074840
:100D300000F071F848B1054800F028F9044908703E
:100D400008460178014800F026F910BD003801403E
:100D50000000002021B1828942F40052828104E027
:100D600082894DF6FF731A408281704700B585B0C5
:100D700001210420FFF752FC01218803FFF74EFCFC
:100D80004FF40070ADF8100018208DF81300032008
:100D90008DF8120004A91748FFF75DFA4FF4806040
:100DA000ADF8100004208DF8130004A91148FFF7D6
:100DB00052FA4FF4E13000900020ADF80400ADF895
:100DC0000600ADF80800ADF80C000C20ADF80A00E4
:100DD0006946094800F06EF8FFF7B9FB012240F2BE
:100DE0002551054800F041F801210348FFF7B2FF03
:100DF00005B000BD00080140003801400246002057
:100E0000B1F5007F00D100BF13880B400BB101206A
:100E100000E00020704770B5024600240023002542
:100E2000002040F66A16B14200D100BFC1F342155E
:100E300001F01F03012606FA03F3012D02D1968962
:100E4000334006E0022D02D1168A334001E0968A33
:100E500033400C12012606FA04F41688344013B10C
:100E60000CB1012000E0002070BDF0B50346002465
:100E700000260025002040F66A17B94200D100BFC5
:100E80001846C1F3421401F01F06012707FA06F5C0
:100E9000012C01D10C3004E0022C01D1103000E013
:100EA00014301AB107682F43076002E00768AF43A8
:100EB0000760F0BD2DE9F04786B005460E460024D8
:100EC000A24600BFA1460027B08900B100BF2F464F
:100ED0002C8A4CF6FF700440F08804432C82AC89C5
:100EE0004EF6F3100440B0883189084371890843F5
:100EF0000443AC81AC8A4FF6FF400440B089044300
:100F0000AC8201A8FFF79AFB1F48874202D1DDF8A7
:100F100010A001E0DDF80CA0A88900F4004040B169
:100F20000AEBCA0000EB0A1031684900B0FBF1F887
:100F300007E00AEBCA0000EB0A1031688900B0FB39
:100F4000F1F86420B8FBF0F004012009642101FBF2
:100F50001089A88900F4004040B1322000EBC9009C
:100F6000B0FBF1F000F00700044308E0322000EB92
:100F700009106421B0FBF1F000F00F0004432C8154
:100F800006B0BDE8F08700000038014001468888BF
:100F9000C0F308007047C1F308028280704700BFA9
:100FA000FEE770B504460D4629462046FFF7F3FFDD
:100FB00000BF80212046FFF721FF0028F9D070BD37
:100FC00070B506460C46002504E0615D3046FFF72B
:100FD000E8FF6D1C605D0028F7D100BF402130465E
:100FE000FFF70CFF0028F9D070BD00000FB4054BCF
:100FF00010B503A9044A029800F018F810BC5DF877
:1010000014FB0000911400081C00002002E008C836
:10101000121F08C1002AFAD170477047002001E072
:1010200001C1121F002AFBD1704700002DE9FF4FBC
:101030008DB00F460546002606E025280BD0DDE9D9
:101040000F1290476D1C761C28780028F5D111B03E
:101050003046BDE8F08F0024A246A1460122EC49AB
:1010600000E0044315F8013F203B02FA03F0084278
:10107000F7D128782A2810D06FF02F022878A0F115
:101080003001092914D80AEB8A0102EB410144F02E
:10109000020400EB010A6D1CF0E701CF5FEA000AD1
:1010A00003D544F40054CAF1000A44F002046D1C54
:1010B00028782E2817D115F8010F44F004042A28A7
:1010C0000ED06FF02F022878A0F1300109290AD83C
:1010D00009EB890102EB410100EB01096D1CF2E70C
:1010E00057F8049B6D1C28786C280FD006DC4C2820
:1010F00017D068280DD06A2814D104E0742810D0C5
:101100007A280FD10DE044F400140AE044F480146E
:1011100001E044F440146978814202D104F580145E
:101120006D1C6D1C2A786E2A1FD00CDC632A31D00E
:1011300004DC002A8BD0582A11D1A3E0642A68D09D
:10114000692A0CD165E0732A2ED004DC6F2A73D093
:10115000702A04D19BE0752A6FD0782A6ED0104691
:10116000DDE90F129047761C50E1C4F302500228CB
:1011700006D0032809D0042801CF09D0066045E134
:1011800001CFF117C0E9006140E101CF06803DE1E8
:1011900006703BE117F8040B8DF8000000208DF875
:1011A0000100EB46012003E057F804BB4FF0FF308D
:1011B00061074FF0000102D40DE008F101018846FB
:1011C00049450FDA8045F8DB1BF808100029F4D1F7
:1011D00008E008F1010188468142FADB1BF808109B
:1011E0000029F6D1DDE90F23AAEB0800814621464C
:1011F00000F036F9304400EB080604E0DDE90F1298
:101200001BF8010B9047B8F10108F7D22146484678
:10121000F7E00A21C4F302534FF0000B0891022BB0
:1012200004D001CFC117032B09D00AE0FF1D27F01E
:101230000707F7E8020108E032E01FE020E000B213
:10124000C117042B01D140B2C117031E71F1000375
:1012500007DA4FF0000CD0EB0C006CEB01012D23F2
:1012600002E0230504D52B238DF82430012303E06D
:10127000E30701D02023F7E7984658E00A2110E061
:1012800010210EE010204FF0000B08900CE0102110
:101290004FF0000B44F004044FF00809089103E0FC
:1012A00008214FF0000B0891C4F30253022B04D025
:1012B00001CF0021032B06D006E0FF1D27F0070712
:1012C000F7E8020103E080B2042B00D1C0B24FF076
:1012D000000823072BD5702A07D0DDF820C08CF03A
:1012E000100C5CEA0B0C05D00EE040238DF8243086
:1012F000012308E050EA010306D030238DF82430A2
:101300008DF8252002239846DDF820C08CF0080CCB
:101310005CEA0B0C0BD150EA010301D1630706D53F
:1013200030238DF824304FF00108A9F10109582A23
:1013300004D038A20B9208AA0A920BE03AA2F9E76D
:101340005B46089AFEF710FF0B9B9B5C0A9A521EA5
:101350000A92137050EA0102F2D10A98ADEB000034
:1013600000F1200B600702D524F4803401E04FF037
:101370000109D94502DDA9EB0B0000E0002000EBDC
:101380000B0141440890AAEB010AE00306D4DDE911
:101390000F232146504600F063F806444FF0000941
:1013A00008E009A911F80900DDE90F12904709F1D9
:1013B0000109761CC145F4DBE0030CD5DDE90F2300
:1013C0002146504600F04CF8064404E0DDE90F12D7
:1013D00030209047761C0899481E08900029F5DCBB
:1013E00008E00A980A990078491C0A91DDE90F1271
:1013F0009047761CBBF10001ABF1010BF1DC2146FB
:101400005046DDE90F2300F019F806446D1C1BE679
:1014100009280100303132333435363738396162CA
:10142000636465660000000030313233343536378E
:101430003839414243444546000000002DE9F0415F
:10144000044600251E461746880404D405E03946A4
:101450002020B0476D1C641EF9D52846BDE8F081F8
:101460002DE9F041044600251E469046C80301D5EB
:10147000302700E02027880404D505E0414638469F
:10148000B0476D1C641EF9D52846BDE8F081000008
:1014900070B504460D46E1B20548FFF77CFD00BF7C
:1014A00080210348FFF7AAFC0028F9D0204670BD30
:1014B0000038014000250024FFF724F8FFF756FC10
:1014C000FEF766FFFFF7D4F938A13E48FFF778FD35
:1014D0003DA0FFF78BFDFFF7C9FA0546404885425E
:1014E00062D140A0FFF782FD294646A0FFF77EFDAE
:1014F0000020FFF719F948A0FFF778FD00BF13E0BF
:1015000049490C550846015D48A0FFF76FFDE117FA
:1015100004EB11710911A4EB01110F2902D145A0AF
:10152000FFF764FD601C84B2FF2CE9DD4FF480728C
:1015300000213D48FFF718F93FA0FFF757FD4FF492
:10154000807241490020FFF76BFA002411E03E4809
:10155000015D36A0FFF74AFDE11704EB1171091197
:10156000A4EB01110F2902D132A0FFF73FFD601C4F
:1015700084B2FF2CEBDDFF2233492B48FEF757FEE8
:1015800048B12020314908600120091D086002206F
:10159000091F086008E020202C49091D086001206F
:1015A000091F08600220086000BFFEE7D5E2CAC735
:1015B000D2BBB8F6535049CDA8D1B6CAB5D1E9A32C
:1015C000A10A000000380140D5E2CAC7D2BBB8F674
:1015D000535049CDA8D1B6CAB5D1E90A00000000E0
:1015E0001740EF000D0A20BCECB2E2B5BDB4AED09E
:1015F000D0464C4153482057323551363420210DC6
:101600000A0000007370695F666C6173685F6964EB
:10161000203D2025780A0D00D0B4C8EBCAFDBEDD00
:10162000A3BA0A0D00000000200200202533642028
:10163000000000000A0D00000A0DB6C1B3F6CAFD95
:10164000BEDDA3BA0A0D000020030020100C0140EB
:101650007016000800000020200000000C10000898
:101660009016000820000020000800001C10000850
:101670000000000000A000000000000001020304C0
:10168000010203040607080902040608000000001E
:0400000508000131BD
:00000001FF
